{"abi":[{"type":"receive","stateMutability":"payable"},{"type":"function","name":"WETH","inputs":[],"outputs":[{"name":"","type":"address","internalType":"contract IWETH"}],"stateMutability":"view"},{"type":"function","name":"_parseTransferCommon","inputs":[{"name":"encoded","type":"bytes","internalType":"bytes"}],"outputs":[{"name":"transfer","type":"tuple","internalType":"struct BridgeStructs.Transfer","components":[{"name":"payloadID","type":"uint8","internalType":"uint8"},{"name":"amount","type":"uint256","internalType":"uint256"},{"name":"tokenAddress","type":"bytes32","internalType":"bytes32"},{"name":"tokenChain","type":"uint16","internalType":"uint16"},{"name":"to","type":"bytes32","internalType":"bytes32"},{"name":"toChain","type":"uint16","internalType":"uint16"},{"name":"fee","type":"uint256","internalType":"uint256"}]}],"stateMutability":"pure"},{"type":"function","name":"attestToken","inputs":[{"name":"tokenAddress","type":"address","internalType":"address"},{"name":"nonce","type":"uint32","internalType":"uint32"}],"outputs":[{"name":"sequence","type":"uint64","internalType":"uint64"}],"stateMutability":"payable"},{"type":"function","name":"bridgeContracts","inputs":[{"name":"chainId_","type":"uint16","internalType":"uint16"}],"outputs":[{"name":"","type":"bytes32","internalType":"bytes32"}],"stateMutability":"view"},{"type":"function","name":"chainId","inputs":[],"outputs":[{"name":"","type":"uint16","internalType":"uint16"}],"stateMutability":"view"},{"type":"function","name":"completeTransfer","inputs":[{"name":"encodedVm","type":"bytes","internalType":"bytes"}],"outputs":[],"stateMutability":"nonpayable"},{"type":"function","name":"completeTransferAndUnwrapETH","inputs":[{"name":"encodedVm","type":"bytes","internalType":"bytes"}],"outputs":[],"stateMutability":"nonpayable"},{"type":"function","name":"completeTransferAndUnwrapETHWithPayload","inputs":[{"name":"encodedVm","type":"bytes","internalType":"bytes"}],"outputs":[{"name":"","type":"bytes","internalType":"bytes"}],"stateMutability":"nonpayable"},{"type":"function","name":"completeTransferWithPayload","inputs":[{"name":"encodedVm","type":"bytes","internalType":"bytes"}],"outputs":[{"name":"","type":"bytes","internalType":"bytes"}],"stateMutability":"nonpayable"},{"type":"function","name":"createWrapped","inputs":[{"name":"encodedVm","type":"bytes","internalType":"bytes"}],"outputs":[{"name":"token","type":"address","internalType":"address"}],"stateMutability":"nonpayable"},{"type":"function","name":"encodeAssetMeta","inputs":[{"name":"meta","type":"tuple","internalType":"struct BridgeStructs.AssetMeta","components":[{"name":"payloadID","type":"uint8","internalType":"uint8"},{"name":"tokenAddress","type":"bytes32","internalType":"bytes32"},{"name":"tokenChain","type":"uint16","internalType":"uint16"},{"name":"decimals","type":"uint8","internalType":"uint8"},{"name":"symbol","type":"bytes32","internalType":"bytes32"},{"name":"name","type":"bytes32","internalType":"bytes32"}]}],"outputs":[{"name":"encoded","type":"bytes","internalType":"bytes"}],"stateMutability":"pure"},{"type":"function","name":"encodeTransfer","inputs":[{"name":"transfer","type":"tuple","internalType":"struct BridgeStructs.Transfer","components":[{"name":"payloadID","type":"uint8","internalType":"uint8"},{"name":"amount","type":"uint256","internalType":"uint256"},{"name":"tokenAddress","type":"bytes32","internalType":"bytes32"},{"name":"tokenChain","type":"uint16","internalType":"uint16"},{"name":"to","type":"bytes32","internalType":"bytes32"},{"name":"toChain","type":"uint16","internalType":"uint16"},{"name":"fee","type":"uint256","internalType":"uint256"}]}],"outputs":[{"name":"encoded","type":"bytes","internalType":"bytes"}],"stateMutability":"pure"},{"type":"function","name":"encodeTransferWithPayload","inputs":[{"name":"transfer","type":"tuple","internalType":"struct BridgeStructs.TransferWithPayload","components":[{"name":"payloadID","type":"uint8","internalType":"uint8"},{"name":"amount","type":"uint256","internalType":"uint256"},{"name":"tokenAddress","type":"bytes32","internalType":"bytes32"},{"name":"tokenChain","type":"uint16","internalType":"uint16"},{"name":"to","type":"bytes32","internalType":"bytes32"},{"name":"toChain","type":"uint16","internalType":"uint16"},{"name":"fromAddress","type":"bytes32","internalType":"bytes32"},{"name":"payload","type":"bytes","internalType":"bytes"}]}],"outputs":[{"name":"encoded","type":"bytes","internalType":"bytes"}],"stateMutability":"pure"},{"type":"function","name":"evmChainId","inputs":[],"outputs":[{"name":"","type":"uint256","internalType":"uint256"}],"stateMutability":"view"},{"type":"function","name":"finality","inputs":[],"outputs":[{"name":"","type":"uint8","internalType":"uint8"}],"stateMutability":"view"},{"type":"function","name":"governanceActionIsConsumed","inputs":[{"name":"hash","type":"bytes32","internalType":"bytes32"}],"outputs":[{"name":"","type":"bool","internalType":"bool"}],"stateMutability":"view"},{"type":"function","name":"governanceChainId","inputs":[],"outputs":[{"name":"","type":"uint16","internalType":"uint16"}],"stateMutability":"view"},{"type":"function","name":"governanceContract","inputs":[],"outputs":[{"name":"","type":"bytes32","internalType":"bytes32"}],"stateMutability":"view"},{"type":"function","name":"implementation","inputs":[],"outputs":[{"name":"","type":"address","internalType":"address"}],"stateMutability":"view"},{"type":"function","name":"initialize","inputs":[],"outputs":[],"stateMutability":"nonpayable"},{"type":"function","name":"isFork","inputs":[],"outputs":[{"name":"","type":"bool","internalType":"bool"}],"stateMutability":"view"},{"type":"function","name":"isInitialized","inputs":[{"name":"impl","type":"address","internalType":"address"}],"outputs":[{"name":"","type":"bool","internalType":"bool"}],"stateMutability":"view"},{"type":"function","name":"isTransferCompleted","inputs":[{"name":"hash","type":"bytes32","internalType":"bytes32"}],"outputs":[{"name":"","type":"bool","internalType":"bool"}],"stateMutability":"view"},{"type":"function","name":"isWrappedAsset","inputs":[{"name":"token","type":"address","internalType":"address"}],"outputs":[{"name":"","type":"bool","internalType":"bool"}],"stateMutability":"view"},{"type":"function","name":"outstandingBridged","inputs":[{"name":"token","type":"address","internalType":"address"}],"outputs":[{"name":"","type":"uint256","internalType":"uint256"}],"stateMutability":"view"},{"type":"function","name":"parseAssetMeta","inputs":[{"name":"encoded","type":"bytes","internalType":"bytes"}],"outputs":[{"name":"meta","type":"tuple","internalType":"struct BridgeStructs.AssetMeta","components":[{"name":"payloadID","type":"uint8","internalType":"uint8"},{"name":"tokenAddress","type":"bytes32","internalType":"bytes32"},{"name":"tokenChain","type":"uint16","internalType":"uint16"},{"name":"decimals","type":"uint8","internalType":"uint8"},{"name":"symbol","type":"bytes32","internalType":"bytes32"},{"name":"name","type":"bytes32","internalType":"bytes32"}]}],"stateMutability":"pure"},{"type":"function","name":"parsePayloadID","inputs":[{"name":"encoded","type":"bytes","internalType":"bytes"}],"outputs":[{"name":"payloadID","type":"uint8","internalType":"uint8"}],"stateMutability":"pure"},{"type":"function","name":"parseRecoverChainId","inputs":[{"name":"encodedRecoverChainId","type":"bytes","internalType":"bytes"}],"outputs":[{"name":"rci","type":"tuple","internalType":"struct BridgeStructs.RecoverChainId","components":[{"name":"module","type":"bytes32","internalType":"bytes32"},{"name":"action","type":"uint8","internalType":"uint8"},{"name":"evmChainId","type":"uint256","internalType":"uint256"},{"name":"newChainId","type":"uint16","internalType":"uint16"}]}],"stateMutability":"pure"},{"type":"function","name":"parseRegisterChain","inputs":[{"name":"encoded","type":"bytes","internalType":"bytes"}],"outputs":[{"name":"chain","type":"tuple","internalType":"struct BridgeStructs.RegisterChain","components":[{"name":"module","type":"bytes32","internalType":"bytes32"},{"name":"action","type":"uint8","internalType":"uint8"},{"name":"chainId","type":"uint16","internalType":"uint16"},{"name":"emitterChainID","type":"uint16","internalType":"uint16"},{"name":"emitterAddress","type":"bytes32","internalType":"bytes32"}]}],"stateMutability":"pure"},{"type":"function","name":"parseTransfer","inputs":[{"name":"encoded","type":"bytes","internalType":"bytes"}],"outputs":[{"name":"transfer","type":"tuple","internalType":"struct BridgeStructs.Transfer","components":[{"name":"payloadID","type":"uint8","internalType":"uint8"},{"name":"amount","type":"uint256","internalType":"uint256"},{"name":"tokenAddress","type":"bytes32","internalType":"bytes32"},{"name":"tokenChain","type":"uint16","internalType":"uint16"},{"name":"to","type":"bytes32","internalType":"bytes32"},{"name":"toChain","type":"uint16","internalType":"uint16"},{"name":"fee","type":"uint256","internalType":"uint256"}]}],"stateMutability":"pure"},{"type":"function","name":"parseTransferWithPayload","inputs":[{"name":"encoded","type":"bytes","internalType":"bytes"}],"outputs":[{"name":"transfer","type":"tuple","internalType":"struct BridgeStructs.TransferWithPayload","components":[{"name":"payloadID","type":"uint8","internalType":"uint8"},{"name":"amount","type":"uint256","internalType":"uint256"},{"name":"tokenAddress","type":"bytes32","internalType":"bytes32"},{"name":"tokenChain","type":"uint16","internalType":"uint16"},{"name":"to","type":"bytes32","internalType":"bytes32"},{"name":"toChain","type":"uint16","internalType":"uint16"},{"name":"fromAddress","type":"bytes32","internalType":"bytes32"},{"name":"payload","type":"bytes","internalType":"bytes"}]}],"stateMutability":"pure"},{"type":"function","name":"parseUpgrade","inputs":[{"name":"encoded","type":"bytes","internalType":"bytes"}],"outputs":[{"name":"chain","type":"tuple","internalType":"struct BridgeStructs.UpgradeContract","components":[{"name":"module","type":"bytes32","internalType":"bytes32"},{"name":"action","type":"uint8","internalType":"uint8"},{"name":"chainId","type":"uint16","internalType":"uint16"},{"name":"newContract","type":"bytes32","internalType":"bytes32"}]}],"stateMutability":"pure"},{"type":"function","name":"registerChain","inputs":[{"name":"encodedVM","type":"bytes","internalType":"bytes"}],"outputs":[],"stateMutability":"nonpayable"},{"type":"function","name":"submitRecoverChainId","inputs":[{"name":"encodedVM","type":"bytes","internalType":"bytes"}],"outputs":[],"stateMutability":"nonpayable"},{"type":"function","name":"tokenImplementation","inputs":[],"outputs":[{"name":"","type":"address","internalType":"address"}],"stateMutability":"view"},{"type":"function","name":"transferTokens","inputs":[{"name":"token","type":"address","internalType":"address"},{"name":"amount","type":"uint256","internalType":"uint256"},{"name":"recipientChain","type":"uint16","internalType":"uint16"},{"name":"recipient","type":"bytes32","internalType":"bytes32"},{"name":"arbiterFee","type":"uint256","internalType":"uint256"},{"name":"nonce","type":"uint32","internalType":"uint32"}],"outputs":[{"name":"sequence","type":"uint64","internalType":"uint64"}],"stateMutability":"payable"},{"type":"function","name":"transferTokensWithPayload","inputs":[{"name":"token","type":"address","internalType":"address"},{"name":"amount","type":"uint256","internalType":"uint256"},{"name":"recipientChain","type":"uint16","internalType":"uint16"},{"name":"recipient","type":"bytes32","internalType":"bytes32"},{"name":"nonce","type":"uint32","internalType":"uint32"},{"name":"payload","type":"bytes","internalType":"bytes"}],"outputs":[{"name":"sequence","type":"uint64","internalType":"uint64"}],"stateMutability":"payable"},{"type":"function","name":"updateWrapped","inputs":[{"name":"encodedVm","type":"bytes","internalType":"bytes"}],"outputs":[{"name":"token","type":"address","internalType":"address"}],"stateMutability":"nonpayable"},{"type":"function","name":"upgrade","inputs":[{"name":"encodedVM","type":"bytes","internalType":"bytes"}],"outputs":[],"stateMutability":"nonpayable"},{"type":"function","name":"wormhole","inputs":[],"outputs":[{"name":"","type":"address","internalType":"contract IWormhole"}],"stateMutability":"view"},{"type":"function","name":"wrapAndTransferETH","inputs":[{"name":"recipientChain","type":"uint16","internalType":"uint16"},{"name":"recipient","type":"bytes32","internalType":"bytes32"},{"name":"arbiterFee","type":"uint256","internalType":"uint256"},{"name":"nonce","type":"uint32","internalType":"uint32"}],"outputs":[{"name":"sequence","type":"uint64","internalType":"uint64"}],"stateMutability":"payable"},{"type":"function","name":"wrapAndTransferETHWithPayload","inputs":[{"name":"recipientChain","type":"uint16","internalType":"uint16"},{"name":"recipient","type":"bytes32","internalType":"bytes32"},{"name":"nonce","type":"uint32","internalType":"uint32"},{"name":"payload","type":"bytes","internalType":"bytes"}],"outputs":[{"name":"sequence","type":"uint64","internalType":"uint64"}],"stateMutability":"payable"},{"type":"function","name":"wrappedAsset","inputs":[{"name":"tokenChainId","type":"uint16","internalType":"uint16"},{"name":"tokenAddress","type":"bytes32","internalType":"bytes32"}],"outputs":[{"name":"","type":"address","internalType":"address"}],"stateMutability":"view"},{"type":"event","name":"AdminChanged","inputs":[{"name":"previousAdmin","type":"address","indexed":false,"internalType":"address"},{"name":"newAdmin","type":"address","indexed":false,"internalType":"address"}],"anonymous":false},{"type":"event","name":"BeaconUpgraded","inputs":[{"name":"beacon","type":"address","indexed":true,"internalType":"address"}],"anonymous":false},{"type":"event","name":"ContractUpgraded","inputs":[{"name":"oldContract","type":"address","indexed":true,"internalType":"address"},{"name":"newContract","type":"address","indexed":true,"internalType":"address"}],"anonymous":false},{"type":"event","name":"TransferRedeemed","inputs":[{"name":"emitterChainId","type":"uint16","indexed":true,"internalType":"uint16"},{"name":"emitterAddress","type":"bytes32","indexed":true,"internalType":"bytes32"},{"name":"sequence","type":"uint64","indexed":true,"internalType":"uint64"}],"anonymous":false},{"type":"event","name":"Upgraded","inputs":[{"name":"implementation","type":"address","indexed":true,"internalType":"address"}],"anonymous":false}],"bytecode":{"object":"0x608060405234801561001057600080fd5b506001600d55615ccb80620000266000396000f3fe608060405260043610620002935760003560e01c8063aa4efa5b116200015f578063cb4cfea811620000c5578063e89bc4011162000084578063e89bc4011462000996578063ea63738d14620009bb578063f768441f14620009ef578063fbe3c2cd1462000a14578063fbeeacd91462000a35578063ff200cde1462000a9557600080fd5b8063cb4cfea81462000897578063d56e2e2414620008f7578063d60b347f146200091c578063e039f2241462000959578063e8059810146200097157600080fd5b8063b96c7e4d116200011e578063b96c7e4d14620007ce578063bee9cdfc1462000808578063c3f511c1146200081f578063c48fa1151462000844578063c5a5ebda146200085b578063c6878519146200087257600080fd5b8063aa4efa5b1462000709578063ad5c4648146200073d578063ad66a5f1146200075d578063b046223b1462000792578063b172b22214620007b757600080fd5b80632c3c02a41162000205578063739fc8d111620001c4578063739fc8d114620006495780638129fc1c146200066b57806384acd1bb14620006835780639981509f14620006a35780639a8a059214620006ba578063a5799f9314620006e457600080fd5b80632c3c02a414620005975780632f3a3d5d14620005cb5780635c60da1b14620005eb5780635f854266146200060357806364d42b17146200062857600080fd5b80631a2be4da11620002525780631a2be4da14620004295780631c8475e414620004775780631ff1e28614620004ab5780632539464514620004e95780632b511375146200050e57600080fd5b806301f5325514620002a057806307dfd8fb146200031e5780630f509008146200039a5780630f5287b014620003d2578063178149e7146200040257600080fd5b366200029b57005b600080fd5b348015620002ad57600080fd5b50620002c5620002bf36600462004742565b62000aba565b604051620003159190600060a0820190508251825260ff6020840151166020830152604083015161ffff808216604085015280606086015116606085015250506080830151608083015292915050565b60405180910390f35b3480156200032b57600080fd5b50620003436200033d36600462004742565b62000c36565b604051620003159190600060c08201905060ff83511682526020830151602083015261ffff604084015116604083015260ff60608401511660608301526080830151608083015260a083015160a083015292915050565b348015620003a757600080fd5b50620003bf620003b936600462004742565b62000dc5565b60405160ff909116815260200162000315565b620003e9620003e3366004620045c1565b62000dd9565b6040516001600160401b03909116815260200162000315565b3480156200040f57600080fd5b50620004276200042136600462004742565b62000e7d565b005b3480156200043657600080fd5b506200046662000448366004620045a4565b6001600160a01b031660009081526009602052604090205460ff1690565b604051901515815260200162000315565b3480156200048457600080fd5b506200049c6200049636600462004742565b62000f99565b60405162000315919062004da6565b348015620004b857600080fd5b50620004d0620004ca36600462004b6c565b62000fa8565b6040516001600160a01b03909116815260200162000315565b348015620004f657600080fd5b50620004276200050836600462004742565b62000fd4565b3480156200051b57600080fd5b50620005336200052d36600462004742565b620010e4565b604051620003159190600060e08201905060ff83511682526020830151602083015260408301516040830152606083015161ffff8082166060850152608085015160808501528060a08601511660a0850152505060c083015160c083015292915050565b348015620005a457600080fd5b5062000466620005b636600462004710565b60009081526005602052604090205460ff1690565b348015620005d857600080fd5b506001546001600160a01b0316620004d0565b348015620005f857600080fd5b50620004d062001255565b3480156200061057600080fd5b506200049c620006223660046200491a565b6200126f565b3480156200063557600080fd5b50600c545b60405190815260200162000315565b3480156200065657600080fd5b50600254640100000000900460ff16620003bf565b3480156200067857600080fd5b506200042762001304565b3480156200069057600080fd5b506000546001600160a01b0316620004d0565b620003e9620006b436600462004b9a565b620013f9565b348015620006c757600080fd5b5060025461ffff165b60405161ffff909116815260200162000315565b348015620006f157600080fd5b50620004276200070336600462004742565b62001439565b3480156200071657600080fd5b50620004666200072836600462004710565b60009081526006602052604090205460ff1690565b3480156200074a57600080fd5b506004546001600160a01b0316620004d0565b3480156200076a57600080fd5b506200063a6200077c36600462004b2e565b61ffff166000908152600b602052604090205490565b3480156200079f57600080fd5b506200049c620007b1366004620047ae565b620015a5565b348015620007c457600080fd5b506003546200063a565b348015620007db57600080fd5b506200063a620007ed366004620045a4565b6001600160a01b03166000908152600a602052604090205490565b620003e96200081936600462004be8565b6200161e565b3480156200082c57600080fd5b506200049c6200083e36600462004742565b62001651565b620003e962000855366004620046b8565b62001660565b620003e96200086c3660046200462c565b62001985565b3480156200087f57600080fd5b50620004276200089136600462004742565b62001a14565b348015620008a457600080fd5b50620008bc620008b636600462004742565b62001a21565b6040516200031591908151815260208083015160ff16908201526040808301519082015260609182015161ffff169181019190915260800190565b3480156200090457600080fd5b506200049c6200091636600462004848565b62001b20565b3480156200092957600080fd5b50620004666200093b366004620045a4565b6001600160a01b031660009081526007602052604090205460ff1690565b3480156200096657600080fd5b506200046662001b63565b3480156200097e57600080fd5b50620004d06200099036600462004742565b62001b77565b348015620009a357600080fd5b5062000533620009b536600462004742565b62001c8c565b348015620009c857600080fd5b50620009e0620009da36600462004742565b62001d98565b60405162000315919062004f0a565b348015620009fc57600080fd5b50620004d062000a0e36600462004742565b62001f15565b34801562000a2157600080fd5b5060025462010000900461ffff16620006d0565b34801562000a4257600080fd5b5062000a5a62000a5436600462004742565b6200202a565b6040516200031591908151815260208083015160ff169082015260408083015161ffff16908201526060918201519181019190915260800190565b34801562000aa257600080fd5b506200042762000ab436600462004742565b62002129565b6040805160a08101825260008082526020820181905291810182905260608101829052608081018290529062000af1838262002136565b825262000b006020826200508d565b82519091506a546f6b656e4272696467651462000b3a5760405162461bcd60e51b815260040162000b319062004ebe565b60405180910390fd5b62000b46838262002198565b60ff16602083015262000b5b6001826200508d565b9050816020015160ff1660011462000b875760405162461bcd60e51b815260040162000b319062004ee4565b62000b938382620021f8565b61ffff16604083015262000ba96002826200508d565b905062000bb78382620021f8565b61ffff16606083015262000bcd6002826200508d565b905062000bdb838262002136565b608083015262000bed6020826200508d565b90508083511462000c305760405162461bcd60e51b815260206004820152600c60248201526b0eee4dedcce40d8cadccee8d60a31b604482015260640162000b31565b50919050565b6040805160c081018252600080825260208201819052918101829052606081018290526080810182905260a081018290529062000c74838262002198565b60ff16825262000c866001826200508d565b9050816000015160ff1660021462000cd55760405162461bcd60e51b8152602060048201526011602482015270696e76616c69642041737365744d65746160781b604482015260640162000b31565b62000ce1838262002136565b60208084019190915262000cf690826200508d565b905062000d048382620021f8565b61ffff16604083015262000d1a6002826200508d565b905062000d28838262002198565b60ff16606083015262000d3d6001826200508d565b905062000d4b838262002136565b608083015262000d5d6020826200508d565b905062000d6b838262002136565b60a083015262000d7d6020826200508d565b90508083511462000c305760405162461bcd60e51b8152602060048201526011602482015270696e76616c69642041737365744d65746160781b604482015260640162000b31565b600062000dd3828262002198565b92915050565b60006002600d54141562000e305760405162461bcd60e51b815260206004820152601f60248201527f5265656e7472616e637947756172643a207265656e7472616e742063616c6c00604482015260640162000b31565b6002600d55600062000e4488888662002259565b905062000e6c8160000151826020015183604001518989866060015187608001518a62002709565b6001600d5598975050505050505050565b62000e8762001b63565b62000ec25760405162461bcd60e51b815260206004820152600a6024820152696e6f74206120666f726b60b01b604482015260640162000b31565b600080600062000ed2846200283d565b92509250925081819062000efb5760405162461bcd60e51b815260040162000b31919062004da6565b5062000f0c83610140015162002a6c565b600062000f1d8460e0015162001a21565b90504681604001511462000f685760405162461bcd60e51b815260206004820152601160248201527034b73b30b634b21022ab269021b430b4b760791b604482015260640162000b31565b62000f77816040015162002a87565b60608101516002805461ffff191661ffff9092169190911790555b5050505050565b606062000dd382600162002ad2565b61ffff91909116600090815260086020908152604080832093835292905220546001600160a01b031690565b62000fde62001b63565b156200101c5760405162461bcd60e51b815260206004820152600c60248201526b696e76616c696420666f726b60a01b604482015260640162000b31565b60008060006200102c846200283d565b925092509250818190620010555760405162461bcd60e51b815260040162000b31919062004da6565b506200106683610140015162002a6c565b6000620010778460e001516200202a565b90506200108760025461ffff1690565b61ffff16816040015161ffff1614620010d45760405162461bcd60e51b815260206004820152600e60248201526d1ddc9bdb99c818da185a5b881a5960921b604482015260640162000b31565b606081015162000f92906200328d565b6040805160e081018252600080825260208201819052918101829052606081018290526080810182905260a0810182905260c081018290529062001129838262002198565b60ff1682526200113b6001826200508d565b9050816000015160ff16600114620011675760405162461bcd60e51b815260040162000b319062004e94565b620011738382620033c4565b6020808401919091526200118890826200508d565b905062001196838262002136565b6040830152620011a86020826200508d565b9050620011b68382620021f8565b61ffff166060830152620011cc6002826200508d565b9050620011da838262002136565b6080830152620011ec6020826200508d565b9050620011fa8382620021f8565b61ffff1660a0830152620012106002826200508d565b90506200121e8382620033c4565b60c0830152620012306020826200508d565b90508083511462000c305760405162461bcd60e51b815260040162000b319062004e94565b60006200126a6001546001600160a01b031690565b905090565b8051602080830151604080850151606080870151608088015160a089015160c08a0151955160f89990991b6001600160f81b031916978901979097526021880195909552604187019290925260f091821b6001600160f01b03199081166061880152606387019490945293901b909116608384015260858301529060a5015b6040516020818303038152906040529050919050565b6000620013387f360894a13ba1a3210667c828492db98dca3e2076cc3735a920a3ca505d382bbc546001600160a01b031690565b90506200135d816001600160a01b031660009081526007602052604090205460ff1690565b15620013a25760405162461bcd60e51b8152602060048201526013602482015272185b1c9958591e481a5b9a5d1a585b1a5e9959606a1b604482015260640162000b31565b620013cb816001600160a01b03166000908152600760205260409020805460ff19166001179055565b600c54600a1415620013f657600480546001600160a01b0319166006602160991b019081179091555b505b50565b60008062001407846200341d565b90506200142f8160000151826020015183604001518989866060015187608001518a62002709565b9695505050505050565b600080600062001449846200283d565b925092509250818190620014725760405162461bcd60e51b815260040162000b31919062004da6565b506200148383610140015162002a6c565b6000620014948460e0015162000aba565b9050620014a460025461ffff1690565b61ffff16816040015161ffff16148015620014c65750620014c462001b63565b155b80620014d85750604081015161ffff16155b620015195760405162461bcd60e51b815260206004820152601060248201526f1a5b9d985b1a590818da185a5b881a5960821b604482015260640162000b31565b606081015161ffff166000908152600b602052604081205414620015805760405162461bcd60e51b815260206004820152601860248201527f636861696e20616c726561647920726567697374657265640000000000000000604482015260640162000b31565b62000f928160600151826080015161ffff9091166000908152600b6020526040902055565b8051602080830151604080850151606080870151608088015160a0890151945160f898891b6001600160f81b031990811698820198909852602181019690965260f09390931b6001600160f01b031916604186015290951b909316604383015260448201929092526064810191909152608401620012ee565b6000806200162d60006200341d565b90506200142f816000015182602001518360400151898986608001518a8a620036f7565b606062000dd382600062002ad2565b60408051600481526024810182526020810180516001600160e01b031663313ce56760e01b179052905160009182916001600160a01b03861691620016a59162004cc3565b600060405180830381855afa9150503d8060008114620016e2576040519150601f19603f3d011682016040523d82523d6000602084013e620016e7565b606091505b5060408051600481526024810182526020810180516001600160e01b03166395d89b4160e01b1790529051919350600092506001600160a01b0387169162001730919062004cc3565b600060405180830381855afa9150503d80600081146200176d576040519150601f19603f3d011682016040523d82523d6000602084013e62001772565b606091505b5060408051600481526024810182526020810180516001600160e01b03166306fdde0360e01b1790529051919350600092506001600160a01b03881691620017bb919062004cc3565b600060405180830381855afa9150503d8060008114620017f8576040519150601f19603f3d011682016040523d82523d6000602084013e620017fd565b606091505b5091505060008380602001905181019062001819919062004c76565b905060008380602001905181019062001833919062004778565b90506000838060200190518101906200184d919062004778565b9050600080602084015191506020830151905060006040518060c00160405280600260ff1681526020018d6001600160a01b031660001b81526020016200189760025461ffff1690565b61ffff1681526020018760ff1681526020018481526020018381525090506000620018c282620015a5565b9050620018d76000546001600160a01b031690565b6001600160a01b031663b19a437e348e84620018fe60025460ff6401000000009091041690565b6040518563ffffffff1660e01b81526004016200191e9392919062004f85565b6020604051808303818588803b1580156200193857600080fd5b505af11580156200194d573d6000803e3d6000fd5b50505050506040513d601f19601f8201168201806040525081019062001974919062004c59565b9d9c50505050505050505050505050565b60006002600d541415620019dc5760405162461bcd60e51b815260206004820152601f60248201527f5265656e7472616e637947756172643a207265656e7472616e742063616c6c00604482015260640162000b31565b6002600d556000620019f088888362002259565b905062000e6c816000015182602001518360400151898986608001518a8a620036f7565b620013f481600062002ad2565b60408051608081018252600080825260208201819052918101829052606081018290529062001a51838262002136565b825262001a606020826200508d565b82519091506a546f6b656e4272696467651462001a915760405162461bcd60e51b815260040162000b319062004ebe565b62001a9d838262002198565b60ff16602083015262001ab26001826200508d565b9050816020015160ff1660031462001ade5760405162461bcd60e51b815260040162000b319062004ee4565b62001aea8382620033c4565b604083015262001afc6020826200508d565b905062001b0a8382620021f8565b61ffff16606083015262000bed6002826200508d565b6060816000015182602001518360400151846060015185608001518660a001518760c001518860e00151604051602001620012ee98979695949392919062004d14565b60004662001b70600c5490565b1415905090565b60008060008062001b906000546001600160a01b031690565b6001600160a01b031663c0fd8bde866040518263ffffffff1660e01b815260040162001bbd919062004da6565b60006040518083038186803b15801562001bd657600080fd5b505afa15801562001beb573d6000803e3d6000fd5b505050506040513d6000823e601f3d908101601f1916820160405262001c159190810190620049bf565b92509250925081819062001c3e5760405162461bcd60e51b815260040162000b31919062004da6565b5062001c4a836200376a565b62001c695760405162461bcd60e51b815260040162000b319062004e6b565b600062001c7a8460e0015162000c36565b90506200142f818560a00151620037d7565b6040805160e081018252600080825260208201819052918101829052606081018290526080810182905260a0810182905260c081018290529062001cd08362000dc5565b90508060ff166001141562001cf25762001cea83620010e4565b915062000c30565b8060ff166003141562001d5a57600062001d0c8462001d98565b60038452602080820151908501526040808201519085015260608082015161ffff908116918601919091526080808301519086015260a091820151169084015250600060c083015262000c30565b60405162461bcd60e51b8152602060048201526012602482015271125b9d985b1a59081c185e5b1bd859081a5960721b604482015260640162000b31565b604080516101008101825260008082526020820181905291810182905260608082018390526080820183905260a0820183905260c0820183905260e08201529062001de4838262002198565b60ff16825262001df66001826200508d565b9050816000015160ff1660031462001e225760405162461bcd60e51b815260040162000b319062004e94565b62001e2e8382620033c4565b60208084019190915262001e4390826200508d565b905062001e51838262002136565b604083015262001e636020826200508d565b905062001e718382620021f8565b61ffff16606083015262001e876002826200508d565b905062001e95838262002136565b608083015262001ea76020826200508d565b905062001eb58382620021f8565b61ffff1660a083015262001ecb6002826200508d565b905062001ed9838262002136565b60c083015262001eeb6020826200508d565b905062001f0a8182855162001f019190620051f3565b85919062003a88565b60e083015250919050565b60008060008062001f2e6000546001600160a01b031690565b6001600160a01b031663c0fd8bde866040518263ffffffff1660e01b815260040162001f5b919062004da6565b60006040518083038186803b15801562001f7457600080fd5b505afa15801562001f89573d6000803e3d6000fd5b505050506040513d6000823e601f3d908101601f1916820160405262001fb39190810190620049bf565b92509250925081819062001fdc5760405162461bcd60e51b815260040162000b31919062004da6565b5062001fe8836200376a565b620020075760405162461bcd60e51b815260040162000b319062004e6b565b6000620020188460e0015162000c36565b90506200142f818560a0015162003ba3565b6040805160808101825260008082526020820181905291810182905260608101829052906200205a838262002136565b8252620020696020826200508d565b82519091506a546f6b656e427269646765146200209a5760405162461bcd60e51b815260040162000b319062004ebe565b620020a6838262002198565b60ff166020830152620020bb6001826200508d565b9050816020015160ff16600214620020e75760405162461bcd60e51b815260040162000b319062004ee4565b620020f38382620021f8565b61ffff166040830152620021096002826200508d565b905062002117838262002136565b606083015262000bed6020826200508d565b620013f481600162002ad2565b6000620021458260206200508d565b835110156200218f5760405162461bcd60e51b8152602060048201526015602482015274746f427974657333325f6f75744f66426f756e647360581b604482015260640162000b31565b50016020015190565b6000620021a78260016200508d565b83511015620021ef5760405162461bcd60e51b8152602060048201526013602482015272746f55696e74385f6f75744f66426f756e647360681b604482015260640162000b31565b50016001015190565b6000620022078260026200508d565b83511015620022505760405162461bcd60e51b8152602060048201526014602482015273746f55696e7431365f6f75744f66426f756e647360601b604482015260640162000b31565b50016002015190565b6040805160a0810182526000808252602082018190529181018290526060810182905260808101919091526001600160a01b038416600090815260096020526040812054819060ff16156200239c57856001600160a01b0316639a8a05926040518163ffffffff1660e01b815260040160206040518083038186803b158015620022e257600080fd5b505afa158015620022f7573d6000803e3d6000fd5b505050506040513d601f19601f820116820180604052508101906200231d919062004b4d565b9150856001600160a01b0316633d6c043b6040518163ffffffff1660e01b815260040160206040518083038186803b1580156200235957600080fd5b505afa1580156200236e573d6000803e3d6000fd5b505050506040513d601f19601f8201168201806040525081019062002394919062004729565b9050620023b0565b505060025461ffff166001600160a01b0385165b60408051600481526024810182526020810180516001600160e01b031663313ce56760e01b17905290516000916001600160a01b03891691620023f4919062004cc3565b600060405180830381855afa9150503d806000811462002431576040519150601f19603f3d011682016040523d82523d6000602084013e62002436565b606091505b5091505060008180602001905181019062002452919062004c76565b90506200246b62002464888362003c9e565b8262003cdd565b96506200247b60025461ffff1690565b61ffff168461ffff1614156200261b57604080513060248083019190915282518083039091018152604490910182526020810180516001600160e01b03166370a0823160e01b17905290516000916001600160a01b038b1691620024e0919062004cc3565b600060405180830381855afa9150503d80600081146200251d576040519150601f19603f3d011682016040523d82523d6000602084013e62002522565b606091505b509150506000818060200190518101906200253e919062004729565b90506200254e8a33308c62003d12565b604080513060248083019190915282518083039091018152604490910182526020810180516001600160e01b03166370a0823160e01b17905290516000916001600160a01b038d1691620025a3919062004cc3565b600060405180830381855afa9150503d8060008114620025e0576040519150601f19603f3d011682016040523d82523d6000602084013e620025e5565b606091505b5091505060008180602001905181019062002601919062004729565b90506200260f8382620051f3565b9a50505050506200268c565b620026298833308a62003d12565b604051632770a7eb60e21b8152306004820152602481018890526001600160a01b03891690639dc29fac90604401600060405180830381600087803b1580156200267257600080fd5b505af115801562002687573d6000803e3d6000fd5b505050505b60006200269a888362003c9e565b90506000620026aa888462003c9e565b9050620026ba60025461ffff1690565b61ffff168661ffff161415620026d657620026d68a8362003d85565b6040805160a08101825261ffff909716875260208701959095529385015250506060820152346080820152949350505050565b600086841115620027525760405162461bcd60e51b815260206004820152601260248201527119995948195e18d959591cc8185b5bdd5b9d60721b604482015260640162000b31565b6040805160e081018252600181526020810189905290810189905261ffff8a8116606083015260808201879052871660a082015260c081018590526000546001600160a01b031663b19a437e8585620027ab856200126f565b600254640100000000900460ff166040518563ffffffff1660e01b8152600401620027d99392919062004f85565b6020604051808303818588803b158015620027f357600080fd5b505af115801562002808573d6000803e3d6000fd5b50505050506040513d601f19601f820116820180604052508101906200282f919062004c59565b9a9950505050505050505050565b604080516101608101825260008082526020820181905291810182905260608082018390526080820183905260a0820183905260c0820183905260e082018190526101008201839052610120820152610140810191909152600060606000806000620028b16000546001600160a01b031690565b6001600160a01b031663c0fd8bde886040518263ffffffff1660e01b8152600401620028de919062004da6565b60006040518083038186803b158015620028f757600080fd5b505afa1580156200290c573d6000803e3d6000fd5b505050506040513d6000823e601f3d908101601f19168201604052620029369190810190620049bf565b925092509250816200294f579194509250905062002a65565b60025462010000900461ffff1661ffff16836060015161ffff1614620029ad5750506040805180820190915260168152753bb937b7339033b7bb32b93730b731b29031b430b4b760511b602082015290935060009250905062002a65565b60035483608001511462002a0057505060408051808201909152601981527f77726f6e6720676f7665726e616e636520636f6e747261637400000000000000602082015290935060009250905062002a65565b61014083015160009081526005602052604090205460ff161562002a4a5782600060405180606001604052806022815260200162005c746022913995509550955050505062002a65565b50506040805160208101909152600081529093506001925090505b9193909250565b6000908152600560205260409020805460ff19166001179055565b46811462002acd5760405162461bcd60e51b81526020600482015260126024820152711a5b9d985b1a5908195d9b50da185a5b925960721b604482015260640162000b31565b600c55565b6060600080600062002aec6000546001600160a01b031690565b6001600160a01b031663c0fd8bde876040518263ffffffff1660e01b815260040162002b19919062004da6565b60006040518083038186803b15801562002b3257600080fd5b505afa15801562002b47573d6000803e3d6000fd5b505050506040513d6000823e601f3d908101601f1916820160405262002b719190810190620049bf565b92509250925081819062002b9a5760405162461bcd60e51b815260040162000b31919062004da6565b5062002ba6836200376a565b62002bc55760405162461bcd60e51b815260040162000b319062004e6b565b600062002bd68460e0015162001c8c565b9050600062002be9826080015162003e52565b9050816000015160ff166003141562002c4757336001600160a01b0382161462002c475760405162461bcd60e51b815260206004820152600e60248201526d34b73b30b634b21039b2b73232b960911b604482015260640162000b31565b61014085015160009081526006602052604090205460ff161562002cae5760405162461bcd60e51b815260206004820152601a60248201527f7472616e7366657220616c726561647920636f6d706c65746564000000000000604482015260640162000b31565b62002cd38561014001516000908152600660205260409020805460ff19166001179055565b8460a001516001600160401b03168560800151866060015161ffff167fcaf280c8cfeba144da67230d9b009c8f868a75bac9a528fa0474be1ba317c16960405160405180910390a460025461ffff1661ffff168260a0015161ffff161462002d755760405162461bcd60e51b815260206004820152601460248201527334b73b30b634b2103a30b933b2ba1031b430b4b760611b604482015260640162000b31565b600062002d8560025461ffff1690565b61ffff16836060015161ffff16141562002dc05762002da8836040015162003e52565b905062002dba81846020015162003ea8565b62002e41565b600062002dd68460600151856040015162000fa8565b90506001600160a01b03811662002e3e5760405162461bcd60e51b815260206004820152602560248201527f6e6f207772617070657220666f72207468697320746f6b656e2063726561746560448201526419081e595d60da1b606482015260840162000b31565b90505b87158062002e5c57506004546001600160a01b038281169116145b62002eb65760405162461bcd60e51b815260206004820152602360248201527f696e76616c696420746f6b656e2c2063616e206f6e6c7920756e77726170205760448201526208aa8960eb1b606482015260840162000b31565b60408051600481526024810182526020810180516001600160e01b031663313ce56760e01b17905290516000916001600160a01b0384169162002efa919062004cc3565b600060405180830381855afa9150503d806000811462002f37576040519150601f19603f3d011682016040523d82523d6000602084013e62002f3c565b606091505b5091505060008180602001905181019062002f58919062004c76565b9050600062002f6c86602001518362003cdd565b9050600062002f808760c001518462003cdd565b905060008111801562002f9c57506001600160a01b0386163314155b156200312e578181111562002fff5760405162461bcd60e51b815260206004820152602260248201527f66656520686967686572207468616e207472616e7366657272656420616d6f756044820152611b9d60f21b606482015260840162000b31565b8b15620030995760048054604051632e1a7d4d60e01b81529182018390526001600160a01b031690632e1a7d4d90602401600060405180830381600087803b1580156200304b57600080fd5b505af115801562003060573d6000803e3d6000fd5b505060405133925083156108fc02915083906000818181858888f1935050505015801562003092573d6000803e3d6000fd5b5062003132565b60025461ffff1661ffff16876060015161ffff16146200311b576040516340c10f1960e01b8152336004820152602481018290526001600160a01b038616906340c10f1990604401600060405180830381600087803b158015620030fc57600080fd5b505af115801562003111573d6000803e3d6000fd5b5050505062003132565b6200312885338362003eda565b62003132565b5060005b6000620031408284620051f3565b90508c15620031e55760048054604051632e1a7d4d60e01b81529182018390526001600160a01b031690632e1a7d4d90602401600060405180830381600087803b1580156200318e57600080fd5b505af1158015620031a3573d6000803e3d6000fd5b50506040516001600160a01b038a16925083156108fc02915083906000818181858888f19350505050158015620031de573d6000803e3d6000fd5b5062003276565b60025461ffff1661ffff16886060015161ffff161462003269576040516340c10f1960e01b81526001600160a01b038881166004830152602482018390528716906340c10f1990604401600060405180830381600087803b1580156200324a57600080fd5b505af11580156200325f573d6000803e3d6000fd5b5050505062003276565b6200327686888362003eda565b50505060e0909701519a9950505050505050505050565b6000620032c17f360894a13ba1a3210667c828492db98dca3e2076cc3735a920a3ca505d382bbc546001600160a01b031690565b9050620032ce8262003f0c565b60408051600481526024810182526020810180516001600160e01b031663204a7f0760e21b179052905160009182916001600160a01b03861691620033139162004cc3565b600060405180830381855af49150503d806000811462003350576040519150601f19603f3d011682016040523d82523d6000602084013e62003355565b606091505b50915091508181906200337d5760405162461bcd60e51b815260040162000b31919062004da6565b50836001600160a01b0316836001600160a01b03167f2e4cc16c100f0b55e2df82ab0b1a7e294aa9cbd01b48fbaf622683fbc0507a4960405160405180910390a350505050565b6000620033d38260206200508d565b835110156200218f5760405162461bcd60e51b8152602060048201526015602482015274746f55696e743235365f6f75744f66426f756e647360581b604482015260640162000b31565b6040805160a081018252600080825260208201819052918101829052606081018290526080810191909152600080546001600160a01b03166001600160a01b0316631a90a2196040518163ffffffff1660e01b815260040160206040518083038186803b1580156200348e57600080fd5b505afa158015620034a3573d6000803e3d6000fd5b505050506040513d601f19601f82011682018060405250810190620034c9919062004729565b9050348110620035275760405162461bcd60e51b815260206004820152602260248201527f76616c756520697320736d616c6c6572207468616e20776f726d686f6c652066604482015261656560f01b606482015260840162000b31565b6000620035358234620051f3565b9050808411156200359e5760405162461bcd60e51b815260206004820152602c60248201527f66656520697320626967676572207468616e20616d6f756e74206d696e75732060448201526b776f726d686f6c652066656560a01b606482015260840162000b31565b6000620035ad82601262003c9e565b90506000620035be86601262003c9e565b90506000620035cf83601262003cdd565b620035db9085620051f3565b905080156200361457604051339082156108fc029083906000818181858888f1935050505015801562003612573d6000803e3d6000fd5b505b6004546001600160a01b031663d0e30db0620036318387620051f3565b6040518263ffffffff1660e01b81526004016000604051808303818588803b1580156200365d57600080fd5b505af115801562003672573d6000803e3d6000fd5b5050505050620036956200368e6004546001600160a01b031690565b8462003d85565b6040518060a00160405280620036ae60025461ffff1690565b61ffff168152602001620036ca6004546001600160a01b031690565b6001600160a01b031660001b81526020018481526020018381526020018681525095505050505050919050565b6040805161010081018252600381526020810188905290810188905261ffff808a16606083015260808201869052861660a08201523360c082015260e081018290526000906200374f6000546001600160a01b031690565b6001600160a01b031663b19a437e8686620027ab8562001b20565b60006200377662001b63565b15620037b45760405162461bcd60e51b815260206004820152600c60248201526b696e76616c696420666f726b60a01b604482015260640162000b31565b50608081015160609091015161ffff166000908152600b60205260409020541490565b6000620037e760025461ffff1690565b61ffff16836040015161ffff161415620038555760405162461bcd60e51b815260206004820152602860248201527f63616e206f6e6c79207772617020746f6b656e732066726f6d20666f726569676044820152676e20636861696e7360c01b606482015260840162000b31565b60006001600160a01b0316620038748460400151856020015162000fa8565b6001600160a01b031614620038cc5760405162461bcd60e51b815260206004820152601c60248201527f7772617070656420617373657420616c72656164792065786973747300000000604482015260640162000b31565b600063c71f461560e01b620038e58560a0015162003f4e565b620038f4866080015162003f4e565b8660600151863089604001518a602001516040516024016200391d979695949392919062004dfe565b60408051601f19818403018152918152602080830180516001600160e01b03166001600160e01b031990951694909417909352519092506000916200396791309185910162004d80565b60405160208183030381529060405290506000604051806020016200398c9062004392565b601f1982820381018352601f909101166040819052620039b29190849060200162004ce1565b6040516020818303038152906040529050600086604001518760200151604051602001620039f992919060f09290921b6001600160f01b0319168252600282015260220190565b604051602081830303815290604052805190602001209050808251602084016000f59450843b62003a2957600080fd5b6040808801516020808a015161ffff90921660009081526008825283812092815291815282822080546001600160a01b0319166001600160a01b038a1690811790915582526009905220805460ff191660011790555050505092915050565b60608162003a9881601f6200508d565b101562003ad95760405162461bcd60e51b815260206004820152600e60248201526d736c6963655f6f766572666c6f7760901b604482015260640162000b31565b62003ae582846200508d565b8451101562003b2b5760405162461bcd60e51b8152602060048201526011602482015270736c6963655f6f75744f66426f756e647360781b604482015260640162000b31565b60608215801562003b4c576040519150600082526020820160405262003b98565b6040519150601f8416801560200281840101858101878315602002848b0101015b8183101562003b8757805183526020928301920162003b6d565b5050858452601f01601f1916604052505b5090505b9392505050565b60008062003bba8460400151856020015162000fa8565b90506001600160a01b03811662003c145760405162461bcd60e51b815260206004820152601d60248201527f7772617070656420617373657420646f6573206e6f7420657869737473000000604482015260640162000b31565b806001600160a01b031663a18cd7c662003c328660a0015162003f4e565b62003c41876080015162003f4e565b866040518463ffffffff1660e01b815260040162003c629392919062004dbb565b600060405180830381600087803b15801562003c7d57600080fd5b505af115801562003c92573d6000803e3d6000fd5b50929695505050505050565b600060088260ff16111562003cd65762003cba6008836200520d565b62003cc790600a62005112565b62003cd39084620050a8565b92505b5090919050565b600060088260ff16111562003cd65762003cf96008836200520d565b62003d0690600a62005112565b62003cd39084620051d1565b6040516001600160a01b038085166024830152831660448201526064810182905262003d7f9085906323b872dd60e01b906084015b60408051601f198184030181529190526020810180516001600160e01b03166001600160e01b03199093169290921790915262004089565b50505050565b6001600160a01b0382166000908152600a60205260409020546001600160401b0362003db283836200508d565b111562003e205760405162461bcd60e51b815260206004820152603560248201527f7472616e736665722065786365656473206d6178206f75747374616e64696e6760448201527408189c9a5919d959081d1bdad95b88185b5bdd5b9d605a1b606482015260840162000b31565b62003e4d8362003e3184846200508d565b6001600160a01b039091166000908152600a6020526040902055565b505050565b60006001600160a01b031982161562003ea45760405162461bcd60e51b8152602060048201526013602482015272696e76616c69642045564d206164647265737360681b604482015260640162000b31565b5090565b620013f4828262003ece856001600160a01b03166000908152600a602052604090205490565b62003e319190620051f3565b6040516001600160a01b03831660248201526044810182905262003e4d90849063a9059cbb60e01b9060640162003d47565b62003f178162004162565b6040516001600160a01b038216907fbc7cd75a20ee27fd9adebab32041f755214dbc6bffa90cc0225b39da2e5c2d3b90600090a250565b606060005b60208110801562003f91575082816020811062003f8057634e487b7160e01b600052603260045260246000fd5b1a60f81b6001600160f81b03191615155b1562003fac578062003fa38162005262565b91505062003f53565b6000816001600160401b0381111562003fd557634e487b7160e01b600052604160045260246000fd5b6040519080825280601f01601f19166020018201604052801562004000576020820181803683370190505b50905060005b8281101562004081578481602081106200403057634e487b7160e01b600052603260045260246000fd5b1a60f81b8282815181106200405557634e487b7160e01b600052603260045260246000fd5b60200101906001600160f81b031916908160001a90535080620040788162005262565b91505062004006565b509392505050565b6000620040e0826040518060400160405280602081526020017f5361666545524332303a206c6f772d6c6576656c2063616c6c206661696c6564815250856001600160a01b0316620042099092919063ffffffff16565b80519091501562003e4d5780806020019051810190620041019190620046f3565b62003e4d5760405162461bcd60e51b815260206004820152602a60248201527f5361666545524332303a204552433230206f7065726174696f6e20646964206e6044820152691bdd081cdd58d8d9595960b21b606482015260840162000b31565b803b620041c85760405162461bcd60e51b815260206004820152602d60248201527f455243313936373a206e657720696d706c656d656e746174696f6e206973206e60448201526c1bdd08184818dbdb9d1c9858dd609a1b606482015260840162000b31565b7f360894a13ba1a3210667c828492db98dca3e2076cc3735a920a3ca505d382bbc80546001600160a01b0319166001600160a01b0392909216919091179055565b60606200421a848460008562004222565b949350505050565b606082471015620042855760405162461bcd60e51b815260206004820152602660248201527f416464726573733a20696e73756666696369656e742062616c616e636520666f6044820152651c8818d85b1b60d21b606482015260840162000b31565b843b620042d55760405162461bcd60e51b815260206004820152601d60248201527f416464726573733a2063616c6c20746f206e6f6e2d636f6e7472616374000000604482015260640162000b31565b600080866001600160a01b03168587604051620042f3919062004cc3565b60006040518083038185875af1925050503d806000811462004332576040519150601f19603f3d011682016040523d82523d6000602084013e62004337565b606091505b50915091506200434982828662004354565b979650505050505050565b606083156200436557508162003b9c565b825115620043765782518084602001fd5b8160405162461bcd60e51b815260040162000b31919062004da6565b61099380620052e183390190565b80356001600160a01b0381168114620043b857600080fd5b919050565b600082601f830112620043ce578081fd5b815160206001600160401b03821115620043ec57620043ec62005296565b620043fc818360051b0162005030565b80838252828201915082860187848660071b89010111156200441c578586fd5b855b858110156200448c57608080838b03121562004438578788fd5b6200444262004fb9565b8351815286840151878201526040808501516200445f81620052d0565b908201526060848101516200447481620052d0565b9082015285529385019391909101906001016200441e565b5090979650505050505050565b80518015158114620043b857600080fd5b600082601f830112620044bb578081fd5b8135620044d2620044cc8262005063565b62005030565b818152846020838601011115620044e7578283fd5b816020850160208301379081016020019190915292915050565b600082601f83011262004512578081fd5b815162004523620044cc8262005063565b81815284602083860101111562004538578283fd5b6200421a82602083016020870162005233565b8035620043b881620052ac565b8051620043b881620052ac565b8051620043b881620052bd565b80516001600160401b0381168114620043b857600080fd5b8035620043b881620052d0565b8051620043b881620052d0565b600060208284031215620045b6578081fd5b62003b9c82620043a0565b60008060008060008060c08789031215620045da578182fd5b620045e587620043a0565b9550602087013594506040870135620045fe81620052ac565b9350606087013592506080870135915060a08701356200461e81620052bd565b809150509295509295509295565b60008060008060008060c0878903121562004645578384fd5b6200465087620043a0565b95506020870135945060408701356200466981620052ac565b93506060870135925060808701356200468281620052bd565b915060a08701356001600160401b038111156200469d578182fd5b620046ab89828a01620044aa565b9150509295509295509295565b60008060408385031215620046cb578182fd5b620046d683620043a0565b91506020830135620046e881620052bd565b809150509250929050565b60006020828403121562004705578081fd5b62003b9c8262004499565b60006020828403121562004722578081fd5b5035919050565b6000602082840312156200473b578081fd5b5051919050565b60006020828403121562004754578081fd5b81356001600160401b038111156200476a578182fd5b6200421a84828501620044aa565b6000602082840312156200478a578081fd5b81516001600160401b03811115620047a0578182fd5b6200421a8482850162004501565b600060c08284031215620047c0578081fd5b60405160c081018181106001600160401b0382111715620047e557620047e562005296565b6040528235620047f581620052d0565b81526020838101359082015260408301356200481181620052ac565b604082015260608301356200482681620052d0565b60608201526080838101359082015260a0928301359281019290925250919050565b6000602082840312156200485a578081fd5b81356001600160401b038082111562004871578283fd5b90830190610100828603121562004886578283fd5b6200489062004fe4565b6200489b836200458a565b81526020830135602082015260408301356040820152620048bf606084016200454b565b606082015260808301356080820152620048dc60a084016200454b565b60a082015260c083013560c082015260e083013582811115620048fd578485fd5b6200490b87828601620044aa565b60e08301525095945050505050565b600060e082840312156200492c578081fd5b60405160e081018181106001600160401b038211171562004951576200495162005296565b60405282356200496181620052d0565b80825250602083013560208201526040830135604082015260608301356200498981620052ac565b606082015260808381013590820152620049a660a084016200454b565b60a082015260c083013560c08201528091505092915050565b600080600060608486031215620049d4578081fd5b83516001600160401b0380821115620049eb578283fd5b90850190610160828803121562004a00578283fd5b62004a0a6200500a565b62004a158362004597565b815262004a256020840162004565565b602082015262004a386040840162004565565b604082015262004a4b6060840162004558565b60608201526080830151608082015262004a6860a0840162004572565b60a082015262004a7b60c0840162004597565b60c082015260e08301518281111562004a92578485fd5b62004aa08982860162004501565b60e08301525061010062004ab681850162004565565b90820152610120838101518381111562004ace578586fd5b62004adc8a828701620043bd565b91830191909152506101408381015190820152945062004aff6020870162004499565b9350604086015191508082111562004b15578283fd5b5062004b248682870162004501565b9150509250925092565b60006020828403121562004b40578081fd5b813562003b9c81620052ac565b60006020828403121562004b5f578081fd5b815162003b9c81620052ac565b6000806040838503121562004b7f578182fd5b823562004b8c81620052ac565b946020939093013593505050565b6000806000806080858703121562004bb0578182fd5b843562004bbd81620052ac565b93506020850135925060408501359150606085013562004bdd81620052bd565b939692955090935050565b6000806000806080858703121562004bfe578182fd5b843562004c0b81620052ac565b935060208501359250604085013562004c2481620052bd565b915060608501356001600160401b0381111562004c3f578182fd5b62004c4d87828801620044aa565b91505092959194509250565b60006020828403121562004c6b578081fd5b62003b9c8262004572565b60006020828403121562004c88578081fd5b815162003b9c81620052d0565b6000815180845262004caf81602086016020860162005233565b601f01601f19169290920160200192915050565b6000825162004cd781846020870162005233565b9190910192915050565b6000835162004cf581846020880162005233565b83519083019062004d0b81836020880162005233565b01949350505050565b60ff60f81b8960f81b168152876001820152866021820152600061ffff60f01b808860f01b166041840152866043840152808660f01b16606384015250836065830152825162004d6c81608585016020870162005233565b919091016085019998505050505050505050565b6001600160a01b03831681526040602082018190526000906200421a9083018462004c95565b60208152600062003b9c602083018462004c95565b60608152600062004dd0606083018662004c95565b828103602084015262004de4818662004c95565b9150506001600160401b0383166040830152949350505050565b60e08152600062004e1360e083018a62004c95565b828103602084015262004e27818a62004c95565b60ff98909816604084015250506001600160401b039490941660608501526001600160a01b0392909216608084015261ffff1660a083015260c09091015292915050565b6020808252600f908201526e34b73b30b634b21032b6b4ba3a32b960891b604082015260600190565b60208082526010908201526f34b73b30b634b2102a3930b739b332b960811b604082015260600190565b6020808252600c908201526b77726f6e67206d6f64756c6560a01b604082015260600190565b6020808252600c908201526b3bb937b7339030b1ba34b7b760a11b604082015260600190565b6020815260ff8251166020820152602082015160408201526040820151606082015261ffff6060830151166080820152608082015160a0820152600060a083015162004f5c60c084018261ffff169052565b5060c083015160e083015260e08301516101008081850152506200421a61012084018262004c95565b63ffffffff8416815260606020820152600062004fa6606083018562004c95565b905060ff83166040830152949350505050565b604051608081016001600160401b038111828210171562004fde5762004fde62005296565b60405290565b60405161010081016001600160401b038111828210171562004fde5762004fde62005296565b60405161016081016001600160401b038111828210171562004fde5762004fde62005296565b604051601f8201601f191681016001600160401b03811182821017156200505b576200505b62005296565b604052919050565b60006001600160401b038211156200507f576200507f62005296565b50601f01601f191660200190565b60008219821115620050a357620050a362005280565b500190565b600082620050c457634e487b7160e01b81526012600452602481fd5b500490565b600181815b808511156200510a578160001904821115620050ee57620050ee62005280565b80851615620050fc57918102915b93841c9390800290620050ce565b509250929050565b600062003b9c60ff8416836000826200512e5750600162000dd3565b816200513d5750600062000dd3565b8160018114620051565760028114620051615762005181565b600191505062000dd3565b60ff84111562005175576200517562005280565b50506001821b62000dd3565b5060208310610133831016604e8410600b8410161715620051a6575081810a62000dd3565b620051b28383620050c9565b8060001904821115620051c957620051c962005280565b029392505050565b6000816000190483118215151615620051ee57620051ee62005280565b500290565b60008282101562005208576200520862005280565b500390565b600060ff821660ff8416808210156200522a576200522a62005280565b90039392505050565b60005b838110156200525057818101518382015260200162005236565b8381111562003d7f5750506000910152565b600060001982141562005279576200527962005280565b5060010190565b634e487b7160e01b600052601160045260246000fd5b634e487b7160e01b600052604160045260246000fd5b61ffff81168114620013f657600080fd5b63ffffffff81168114620013f657600080fd5b60ff81168114620013f657600080fdfe608060405234801561001057600080fd5b5060405161099338038061099383398101604081905261002f9161048e565b818161005c60017fa3f0ad74e5423aebfd80d3ef4346578335a9a72aeaee59ff6cb3582b35133d51610599565b60008051602061094c8339815191521461008657634e487b7160e01b600052600160045260246000fd5b6100928282600061009b565b505050506105fe565b6100a483610175565b6040516001600160a01b038416907f1cf3b03a6cf19fa2baba4df148e9dcabedea7f8a5c07840e207e5c089be95d3e90600090a26000825111806100e55750805b156101705761016e836001600160a01b0316635c60da1b6040518163ffffffff1660e01b815260040160206040518083038186803b15801561012657600080fd5b505afa15801561013a573d6000803e3d6000fd5b505050506040513d601f19601f8201168201806040525081019061015e9190610474565b8361031560201b6100291760201c565b505b505050565b6101888161034160201b6100551760201c565b6101e75760405162461bcd60e51b815260206004820152602560248201527f455243313936373a206e657720626561636f6e206973206e6f74206120636f6e6044820152641d1c9858dd60da1b60648201526084015b60405180910390fd5b61026a816001600160a01b0316635c60da1b6040518163ffffffff1660e01b815260040160206040518083038186803b15801561022357600080fd5b505afa158015610237573d6000803e3d6000fd5b505050506040513d601f19601f8201168201806040525081019061025b9190610474565b61034160201b6100551760201c565b6102cf5760405162461bcd60e51b815260206004820152603060248201527f455243313936373a20626561636f6e20696d706c656d656e746174696f6e206960448201526f1cc81b9bdd08184818dbdb9d1c9858dd60821b60648201526084016101de565b806102f460008051602061094c83398151915260001b61034760201b61005b1760201c565b80546001600160a01b0319166001600160a01b039290921691909117905550565b606061033a838360405180606001604052806027815260200161096c6027913961034a565b9392505050565b3b151590565b90565b6060833b6103a95760405162461bcd60e51b815260206004820152602660248201527f416464726573733a2064656c65676174652063616c6c20746f206e6f6e2d636f6044820152651b9d1c9858dd60d21b60648201526084016101de565b600080856001600160a01b0316856040516103c4919061054a565b600060405180830381855af49150503d80600081146103ff576040519150601f19603f3d011682016040523d82523d6000602084013e610404565b606091505b50909250905061041582828661041f565b9695505050505050565b6060831561042e57508161033a565b82511561043e5782518084602001fd5b8160405162461bcd60e51b81526004016101de9190610566565b80516001600160a01b038116811461046f57600080fd5b919050565b600060208284031215610485578081fd5b61033a82610458565b600080604083850312156104a0578081fd5b6104a983610458565b60208401519092506001600160401b03808211156104c5578283fd5b818501915085601f8301126104d8578283fd5b8151818111156104ea576104ea6105e8565b604051601f8201601f19908116603f01168101908382118183101715610512576105126105e8565b8160405282815288602084870101111561052a578586fd5b61053b8360208301602088016105bc565b80955050505050509250929050565b6000825161055c8184602087016105bc565b9190910192915050565b60208152600082518060208401526105858160408501602087016105bc565b601f01601f19169190910160400192915050565b6000828210156105b757634e487b7160e01b81526011600452602481fd5b500390565b60005b838110156105d75781810151838201526020016105bf565b8381111561016e5750506000910152565b634e487b7160e01b600052604160045260246000fd5b61033f8061060d6000396000f3fe60806040523661001357610011610017565b005b6100115b61002761002261005e565b610106565b565b606061004e83836040518060600160405280602781526020016102e36027913961012a565b9392505050565b3b151590565b90565b60006100917fa3f0ad74e5423aebfd80d3ef4346578335a9a72aeaee59ff6cb3582b35133d50546001600160a01b031690565b6001600160a01b0316635c60da1b6040518163ffffffff1660e01b815260040160206040518083038186803b1580156100c957600080fd5b505afa1580156100dd573d6000803e3d6000fd5b505050506040513d601f19601f82011682018060405250810190610101919061023c565b905090565b3660008037600080366000845af43d6000803e808015610125573d6000f35b3d6000fd5b6060833b61018e5760405162461bcd60e51b815260206004820152602660248201527f416464726573733a2064656c65676174652063616c6c20746f206e6f6e2d636f6044820152651b9d1c9858dd60d21b60648201526084015b60405180910390fd5b600080856001600160a01b0316856040516101a99190610263565b600060405180830381855af49150503d80600081146101e4576040519150601f19603f3d011682016040523d82523d6000602084013e6101e9565b606091505b50915091506101f9828286610203565b9695505050505050565b6060831561021257508161004e565b8251156102225782518084602001fd5b8160405162461bcd60e51b8152600401610185919061027f565b60006020828403121561024d578081fd5b81516001600160a01b038116811461004e578182fd5b600082516102758184602087016102b2565b9190910192915050565b602081526000825180602084015261029e8160408501602087016102b2565b601f01601f19169190910160400192915050565b60005b838110156102cd5781810151838201526020016102b5565b838111156102dc576000848401525b5050505056fe416464726573733a206c6f772d6c6576656c2064656c65676174652063616c6c206661696c6564a26469706673582212209cd115396930c8df7d5bb5ec2ca962091ec8a836908b77d18831c9803dc028b264736f6c63430008040033a3f0ad74e5423aebfd80d3ef4346578335a9a72aeaee59ff6cb3582b35133d50416464726573733a206c6f772d6c6576656c2064656c65676174652063616c6c206661696c6564676f7665726e616e636520616374696f6e20616c726561647920636f6e73756d6564a2646970667358221220ad062b0ffdfa8c20d7cb5cd275047e4939bbd2622548c80b668555656c148c2764736f6c63430008040033","linkReferences":{}},"methodIdentifiers":{"WETH()":"ad5c4648","_parseTransferCommon(bytes)":"e89bc401","attestToken(address,uint32)":"c48fa115","bridgeContracts(uint16)":"ad66a5f1","chainId()":"9a8a0592","completeTransfer(bytes)":"c6878519","completeTransferAndUnwrapETH(bytes)":"ff200cde","completeTransferAndUnwrapETHWithPayload(bytes)":"1c8475e4","completeTransferWithPayload(bytes)":"c3f511c1","createWrapped(bytes)":"e8059810","encodeAssetMeta((uint8,bytes32,uint16,uint8,bytes32,bytes32))":"b046223b","encodeTransfer((uint8,uint256,bytes32,uint16,bytes32,uint16,uint256))":"5f854266","encodeTransferWithPayload((uint8,uint256,bytes32,uint16,bytes32,uint16,bytes32,bytes))":"d56e2e24","evmChainId()":"64d42b17","finality()":"739fc8d1","governanceActionIsConsumed(bytes32)":"2c3c02a4","governanceChainId()":"fbe3c2cd","governanceContract()":"b172b222","implementation()":"5c60da1b","initialize()":"8129fc1c","isFork()":"e039f224","isInitialized(address)":"d60b347f","isTransferCompleted(bytes32)":"aa4efa5b","isWrappedAsset(address)":"1a2be4da","outstandingBridged(address)":"b96c7e4d","parseAssetMeta(bytes)":"07dfd8fb","parsePayloadID(bytes)":"0f509008","parseRecoverChainId(bytes)":"cb4cfea8","parseRegisterChain(bytes)":"01f53255","parseTransfer(bytes)":"2b511375","parseTransferWithPayload(bytes)":"ea63738d","parseUpgrade(bytes)":"fbeeacd9","registerChain(bytes)":"a5799f93","submitRecoverChainId(bytes)":"178149e7","tokenImplementation()":"2f3a3d5d","transferTokens(address,uint256,uint16,bytes32,uint256,uint32)":"0f5287b0","transferTokensWithPayload(address,uint256,uint16,bytes32,uint32,bytes)":"c5a5ebda","updateWrapped(bytes)":"f768441f","upgrade(bytes)":"25394645","wormhole()":"84acd1bb","wrapAndTransferETH(uint16,bytes32,uint256,uint32)":"9981509f","wrapAndTransferETHWithPayload(uint16,bytes32,uint32,bytes)":"bee9cdfc","wrappedAsset(uint16,bytes32)":"1ff1e286"},"id":15}