{"abi":[{"type":"function","name":"setup","inputs":[{"name":"implementation","type":"address","internalType":"address"},{"name":"initialGuardians","type":"address[]","internalType":"address[]"},{"name":"chainId","type":"uint16","internalType":"uint16"},{"name":"governanceChainId","type":"uint16","internalType":"uint16"},{"name":"governanceContract","type":"bytes32","internalType":"bytes32"},{"name":"evmChainId","type":"uint256","internalType":"uint256"}],"outputs":[],"stateMutability":"nonpayable"},{"type":"event","name":"AdminChanged","inputs":[{"name":"previousAdmin","type":"address","indexed":false,"internalType":"address"},{"name":"newAdmin","type":"address","indexed":false,"internalType":"address"}],"anonymous":false},{"type":"event","name":"BeaconUpgraded","inputs":[{"name":"beacon","type":"address","indexed":true,"internalType":"address"}],"anonymous":false},{"type":"event","name":"Upgraded","inputs":[{"name":"implementation","type":"address","indexed":true,"internalType":"address"}],"anonymous":false}],"bytecode":{"object":"0x608060405234801561001057600080fd5b5061055b806100206000396000f3fe608060405234801561001057600080fd5b506004361061002b5760003560e01c8063a712ff9914610030575b600080fd5b61004361003e3660046103db565b610045565b005b60008551116100945760405162461bcd60e51b81526020600482015260166024820152751b9bc819dd585c991a585b9cc81cdc1958da599a595960521b60448201526064015b60405180910390fd5b604080518082019091528581526000602082018190526100b590829061011c565b6000805461ffff868116620100000263ffffffff199092169088161717905560018390556100e282610205565b6100eb8761024e565b610113876001600160a01b03166000908152600660205260409020805460ff19166001179055565b50505050505050565b81515160005b818110156101af5783518051600091908390811061015057634e487b7160e01b600052603260045260246000fd5b60200260200101516001600160a01b0316141561019d5760405162461bcd60e51b815260206004820152600b60248201526a496e76616c6964206b657960a81b604482015260640161008b565b806101a7816104e8565b915050610122565b5063ffffffff821660009081526002602090815260409091208451805186936101dc928492910190610333565b50602091909101516001909101805463ffffffff191663ffffffff909216919091179055505050565b4681146102495760405162461bcd60e51b81526020600482015260126024820152711a5b9d985b1a5908195d9b50da185a5b925960721b604482015260640161008b565b600855565b6102578161028e565b6040516001600160a01b038216907fbc7cd75a20ee27fd9adebab32041f755214dbc6bffa90cc0225b39da2e5c2d3b90600090a250565b803b6102f25760405162461bcd60e51b815260206004820152602d60248201527f455243313936373a206e657720696d706c656d656e746174696f6e206973206e60448201526c1bdd08184818dbdb9d1c9858dd609a1b606482015260840161008b565b7f360894a13ba1a3210667c828492db98dca3e2076cc3735a920a3ca505d382bbc80546001600160a01b0319166001600160a01b0392909216919091179055565b828054828255906000526020600020908101928215610388579160200282015b8281111561038857825182546001600160a01b0319166001600160a01b03909116178255602090920191600190910190610353565b50610394929150610398565b5090565b5b808211156103945760008155600101610399565b80356001600160a01b03811681146103c457600080fd5b919050565b803561ffff811681146103c457600080fd5b60008060008060008060c087890312156103f3578182fd5b6103fc876103ad565b955060208088013567ffffffffffffffff80821115610419578485fd5b818a0191508a601f83011261042c578485fd5b81358181111561043e5761043e61050f565b8060051b604051601f19603f830116810181811085821117156104635761046361050f565b604052828152858101935084860182860187018f1015610481578889fd5b8895505b838610156104aa57610496816103ad565b855260019590950194938601938601610485565b50809a505050505050506104c0604088016103c9565b93506104ce606088016103c9565b92506080870135915060a087013590509295509295509295565b600060001982141561050857634e487b7160e01b81526011600452602481fd5b5060010190565b634e487b7160e01b600052604160045260246000fdfea26469706673582212201ef8336a42df29bb71b6242252f879704fbbe6a81fc8241f605e5740ad8c48c464736f6c63430008040033","linkReferences":{}},"methodIdentifiers":{"setup(address,address[],uint16,uint16,bytes32,uint256)":"a712ff99"},"id":7}